{
  "contractName": "SmartBond",
  "abi": [
    {
      "constant": true,
      "inputs": [],
      "name": "creator",
      "outputs": [
        {
          "name": "",
          "type": "address"
        }
      ],
      "payable": false,
      "stateMutability": "view",
      "type": "function"
    },
    {
      "constant": false,
      "inputs": [],
      "name": "receiveEth",
      "outputs": [],
      "payable": true,
      "stateMutability": "payable",
      "type": "function"
    },
    {
      "constant": false,
      "inputs": [
        {
          "name": "payAmount",
          "type": "uint256"
        }
      ],
      "name": "sendAmountToBeneficiario",
      "outputs": [],
      "payable": false,
      "stateMutability": "nonpayable",
      "type": "function"
    },
    {
      "constant": false,
      "inputs": [],
      "name": "getEthBalance",
      "outputs": [
        {
          "name": "",
          "type": "uint256"
        }
      ],
      "payable": false,
      "stateMutability": "nonpayable",
      "type": "function"
    },
    {
      "constant": false,
      "inputs": [
        {
          "name": "_status",
          "type": "bool"
        }
      ],
      "name": "editSmartBondWorkState",
      "outputs": [],
      "payable": false,
      "stateMutability": "nonpayable",
      "type": "function"
    }
  ],
  "bytecode": "0x608060405234801561001057600080fd5b506103f4806100206000396000f3fe60806040526004361061006d576000357c0100000000000000000000000000000000000000000000000000000000900463ffffffff16806302d05d3f146100725780634185f8eb146100c95780634d61eaa6146100d357806370ed0ada14610110578063bcef83921461013b575b600080fd5b34801561007e57600080fd5b50610087610176565b604051808273ffffffffffffffffffffffffffffffffffffffff1673ffffffffffffffffffffffffffffffffffffffff16815260200191505060405180910390f35b6100d161019b565b005b3480156100df57600080fd5b5061010e600480360360208110156100f657600080fd5b81019080803515159060200190929190505050610208565b005b34801561011c57600080fd5b50610125610280565b6040518082815260200191505060405180910390f35b34801561014757600080fd5b506101746004803603602081101561015e57600080fd5b81019080803590602001909291905050506102e5565b005b6000809054906101000a900473ffffffffffffffffffffffffffffffffffffffff1681565b6000809054906101000a900473ffffffffffffffffffffffffffffffffffffffff1673ffffffffffffffffffffffffffffffffffffffff163373ffffffffffffffffffffffffffffffffffffffff161415156101f657600080fd5b34600a60008282540192505081905550565b6000809054906101000a900473ffffffffffffffffffffffffffffffffffffffff1673ffffffffffffffffffffffffffffffffffffffff163373ffffffffffffffffffffffffffffffffffffffff1614151561026357600080fd5b80600d60006101000a81548160ff02191690831515021790555050565b60008060009054906101000a900473ffffffffffffffffffffffffffffffffffffffff1673ffffffffffffffffffffffffffffffffffffffff163373ffffffffffffffffffffffffffffffffffffffff161415156102dd57600080fd5b600a54905090565b6000809054906101000a900473ffffffffffffffffffffffffffffffffffffffff1673ffffffffffffffffffffffffffffffffffffffff163373ffffffffffffffffffffffffffffffffffffffff1614151561034057600080fd5b80600a541015156103c557600560009054906101000a900473ffffffffffffffffffffffffffffffffffffffff1673ffffffffffffffffffffffffffffffffffffffff166108fc829081150290604051600060405180830381858888f193505050501580156103b3573d6000803e3d6000fd5b5080600a600082825403925050819055505b5056fea165627a7a72305820b875c892ed30a5dcb737630a25cc6855ce2681c40a4dfd81e05243169adb00250029",
  "source": "pragma solidity ^0.5.0;\r\n\r\ncontract SmartBond {\r\n\r\n\taddress payable public creator;\r\n\tstring  idSM;\r\n\tstring  beneficiarioNome;\r\n\tstring  beneficiarioCognome;\r\n\tstring  beneficiarioCodiceFiscale;\r\n\taddress payable beneficiarioAddress;\r\n\tuint256 dataInizio;\r\n\tuint256 dataFine;\r\n\tuint    valNominale;\r\n\tuint    valCedola;\r\n\tuint256 ethBalance;\r\n\tstring  idCreatoreSM;\r\n\tstring  oracoloURL;\r\n\tbool    runStatus;\r\n    \r\n    // trasferimento ETH\r\n    \r\n    // consente allo SC di ricevere ETH solo dall'owner\r\n    function receiveEth() public payable {\r\n        require(msg.sender == creator);\r\n        ethBalance += msg.value;\r\n    }\r\n    \r\n    // consente allo SC di inviare ETH al beneficiario solo se la chiamata arriva dall'owner\r\n    function sendAmountToBeneficiario(uint payAmount) public {\r\n        require(msg.sender == creator);\r\n        if (ethBalance >= payAmount) {\r\n            beneficiarioAddress.transfer(payAmount);\r\n            ethBalance -= payAmount;\r\n        }\r\n    }\r\n    \r\n    // ritorna l'ammontare di ETH presenti sullo SmartBond\r\n    function getEthBalance() public returns(uint) {\r\n        require(msg.sender == creator);\r\n        return ethBalance;\r\n    }\r\n    \r\n    // Gestione SmartBond\r\n    function killSmartBond() private {\r\n        require(msg.sender == creator);\r\n        selfdestruct(creator);\r\n    }\r\n    \r\n    function editSmartBondWorkState(bool _status) public {\r\n        require(msg.sender == creator);\r\n        runStatus = _status;\r\n    }\r\n    \r\n}",
  "sourcePath": "C:/Users/dariot/Desktop/sbond/contracts/contract.sol",
  "compiler": {
    "name": "solc",
    "version": "0.5.0+commit.1d4f565a.Emscripten.clang"
  },
  "schemaVersion": "3.0.1",
  "updatedAt": "2019-01-15T16:50:36.750Z",
  "devdoc": {
    "methods": {}
  },
  "userdoc": {
    "methods": {}
  }
}